{
  "contractName": "FbToken",
  "abi": [
    {
      "constant": true,
      "inputs": [],
      "name": "totalSupply",
      "outputs": [
        {
          "name": "",
          "type": "uint256"
        }
      ],
      "payable": false,
      "stateMutability": "view",
      "type": "function"
    },
    {
      "inputs": [],
      "payable": false,
      "stateMutability": "nonpayable",
      "type": "constructor"
    }
  ],
  "bytecode": "0x608060405234801561001057600080fd5b5062989680600081905550609e806100296000396000f3fe608060405260043610603f576000357c0100000000000000000000000000000000000000000000000000000000900463ffffffff16806318160ddd146044575b600080fd5b348015604f57600080fd5b506056606c565b6040518082815260200191505060405180910390f35b6000548156fea165627a7a723058203f2504256ffea10ce9b82910b440a213c5d3262a4b3b7c8a882cd0beeaf9f3ec0029",
  "source": "pragma solidity = 0.5.0;\n\ncontract FbToken {\n\n  uint256 public totalSupply;\n\n  constructor() public{\n    totalSupply = 10000000;\n  }\n}\n",
  "sourcePath": "/Users/kechagiaskonstantinos/Downloads/blockchainTests/contracts/FbToken.sol",
  "compiler": {
    "name": "solc",
    "version": "0.5.0+commit.1d4f565a.Emscripten.clang"
  },
  "schemaVersion": "3.0.9",
  "updatedAt": "2019-05-19T17:56:33.946Z",
  "devdoc": {
    "methods": {}
  },
  "userdoc": {
    "methods": {}
  }
}